{
  "contractName": "Job",
  "abi": [
    {
      "inputs": [
        {
          "internalType": "uint16",
          "name": "_longitude",
          "type": "uint16"
        },
        {
          "internalType": "uint16",
          "name": "_latitude",
          "type": "uint16"
        },
        {
          "internalType": "uint256",
          "name": "_bountyPerMinute",
          "type": "uint256"
        },
        {
          "internalType": "address",
          "name": "_owner",
          "type": "address"
        },
        {
          "internalType": "address",
          "name": "_feeTo",
          "type": "address"
        },
        {
          "internalType": "uint256",
          "name": "_feeRate",
          "type": "uint256"
        }
      ],
      "stateMutability": "nonpayable",
      "type": "constructor"
    },
    {
      "inputs": [],
      "name": "bountyPerMinute",
      "outputs": [
        {
          "internalType": "uint256",
          "name": "",
          "type": "uint256"
        }
      ],
      "stateMutability": "view",
      "type": "function"
    },
    {
      "inputs": [],
      "name": "feeRate",
      "outputs": [
        {
          "internalType": "uint256",
          "name": "",
          "type": "uint256"
        }
      ],
      "stateMutability": "view",
      "type": "function"
    },
    {
      "inputs": [],
      "name": "feeTo",
      "outputs": [
        {
          "internalType": "address",
          "name": "",
          "type": "address"
        }
      ],
      "stateMutability": "view",
      "type": "function"
    },
    {
      "inputs": [],
      "name": "maxFee",
      "outputs": [
        {
          "internalType": "uint256",
          "name": "",
          "type": "uint256"
        }
      ],
      "stateMutability": "view",
      "type": "function"
    },
    {
      "inputs": [],
      "name": "radius",
      "outputs": [
        {
          "internalType": "uint256",
          "name": "",
          "type": "uint256"
        }
      ],
      "stateMutability": "view",
      "type": "function"
    },
    {
      "inputs": [],
      "name": "timeLimit",
      "outputs": [
        {
          "internalType": "uint256",
          "name": "",
          "type": "uint256"
        }
      ],
      "stateMutability": "view",
      "type": "function"
    },
    {
      "inputs": [],
      "name": "totalBounty",
      "outputs": [
        {
          "internalType": "uint256",
          "name": "",
          "type": "uint256"
        }
      ],
      "stateMutability": "view",
      "type": "function"
    },
    {
      "stateMutability": "payable",
      "type": "receive"
    },
    {
      "inputs": [],
      "name": "contractorAcceptJob",
      "outputs": [],
      "stateMutability": "nonpayable",
      "type": "function"
    },
    {
      "inputs": [],
      "name": "ownerAcceptContractor",
      "outputs": [],
      "stateMutability": "nonpayable",
      "type": "function"
    },
    {
      "inputs": [],
      "name": "ownerRejectConctractor",
      "outputs": [],
      "stateMutability": "nonpayable",
      "type": "function"
    },
    {
      "inputs": [],
      "name": "finishJob",
      "outputs": [],
      "stateMutability": "nonpayable",
      "type": "function"
    },
    {
      "inputs": [],
      "name": "cancelJob",
      "outputs": [],
      "stateMutability": "nonpayable",
      "type": "function"
    }
  ],
  "bytecode": "0x60806040523480156200001157600080fd5b50604051620010123803806200101283398181016040528101906200003791906200022e565b60405180604001604052808761ffff1681526020018661ffff168152506000808201518160000160006101000a81548161ffff021916908361ffff16021790555060208201518160000160026101000a81548161ffff021916908361ffff1602179055509050508360018190555082600260006101000a81548173ffffffffffffffffffffffffffffffffffffffff021916908373ffffffffffffffffffffffffffffffffffffffff16021790555081600960006101000a81548173ffffffffffffffffffffffffffffffffffffffff021916908373ffffffffffffffffffffffffffffffffffffffff16021790555080600a8190555060006004819055506000600681905550505050505050620002ca565b600080fd5b600061ffff82169050919050565b62000168816200014f565b81146200017457600080fd5b50565b60008151905062000188816200015d565b92915050565b6000819050919050565b620001a3816200018e565b8114620001af57600080fd5b50565b600081519050620001c38162000198565b92915050565b600073ffffffffffffffffffffffffffffffffffffffff82169050919050565b6000620001f682620001c9565b9050919050565b6200020881620001e9565b81146200021457600080fd5b50565b6000815190506200022881620001fd565b92915050565b60008060008060008060c087890312156200024e576200024d6200014a565b5b60006200025e89828a0162000177565b96505060206200027189828a0162000177565b95505060406200028489828a01620001b2565b94505060606200029789828a0162000217565b9350506080620002aa89828a0162000217565b92505060a0620002bd89828a01620001b2565b9150509295509295509295565b610d3880620002da6000396000f3fe6080604052600436106100ab5760003560e01c8063978bbdb911610064578063978bbdb914610216578063b07c747514610241578063bfefedb114610258578063c08d1fe514610283578063d1dfae2b146102ae578063f19d96eb146102c55761014b565b8063017e7e581461015057806301f59d161461017b578063217f4353146101a65780634db9e9e7146101d15780635d658aca146101e85780636d2bc525146101ff5761014b565b3661014b5760015434116100f4576040517f08c379a00000000000000000000000000000000000000000000000000000000081526004016100eb9061095f565b60405180910390fd5b6064600a543461010491906109b8565b61010e9190610a41565b600b81905550600b54346101229190610a72565b600881905550603c60015460085461013a9190610a41565b61014491906109b8565b6005819055005b600080fd5b34801561015c57600080fd5b506101656102f0565b6040516101729190610ae7565b60405180910390f35b34801561018757600080fd5b50610190610316565b60405161019d9190610b11565b60405180910390f35b3480156101b257600080fd5b506101bb61031c565b6040516101c89190610b11565b60405180910390f35b3480156101dd57600080fd5b506101e6610322565b005b3480156101f457600080fd5b506101fd6103b1565b005b34801561020b57600080fd5b5061021461046f565b005b34801561022257600080fd5b5061022b61050d565b6040516102389190610b11565b60405180910390f35b34801561024d57600080fd5b50610256610513565b005b34801561026457600080fd5b5061026d6105de565b60405161027a9190610b11565b60405180910390f35b34801561028f57600080fd5b506102986105e4565b6040516102a59190610b11565b60405180910390f35b3480156102ba57600080fd5b506102c36105ea565b005b3480156102d157600080fd5b506102da6108d6565b6040516102e79190610b11565b60405180910390f35b600960009054906101000a900473ffffffffffffffffffffffffffffffffffffffff1681565b600b5481565b60075481565b600260009054906101000a900473ffffffffffffffffffffffffffffffffffffffff1673ffffffffffffffffffffffffffffffffffffffff163373ffffffffffffffffffffffffffffffffffffffff1614801561038157506000600454145b61038a57600080fd5b600360006101000a81549073ffffffffffffffffffffffffffffffffffffffff0219169055565b600260009054906101000a900473ffffffffffffffffffffffffffffffffffffffff1673ffffffffffffffffffffffffffffffffffffffff163373ffffffffffffffffffffffffffffffffffffffff1614801561045d5750600073ffffffffffffffffffffffffffffffffffffffff16600360009054906101000a900473ffffffffffffffffffffffffffffffffffffffff1673ffffffffffffffffffffffffffffffffffffffff1614155b61046657600080fd5b42600481905550565b600073ffffffffffffffffffffffffffffffffffffffff16600360009054906101000a900473ffffffffffffffffffffffffffffffffffffffff1673ffffffffffffffffffffffffffffffffffffffff16146104ca57600080fd5b33600360006101000a81548173ffffffffffffffffffffffffffffffffffffffff021916908373ffffffffffffffffffffffffffffffffffffffff160217905550565b600a5481565b600260009054906101000a900473ffffffffffffffffffffffffffffffffffffffff1673ffffffffffffffffffffffffffffffffffffffff163373ffffffffffffffffffffffffffffffffffffffff16146105a3576040517f08c379a000000000000000000000000000000000000000000000000000000000815260040161059a90610b9e565b60405180910390fd5b600260009054906101000a900473ffffffffffffffffffffffffffffffffffffffff1673ffffffffffffffffffffffffffffffffffffffff16ff5b60015481565b60055481565b60006006541480156106a15750600260009054906101000a900473ffffffffffffffffffffffffffffffffffffffff1673ffffffffffffffffffffffffffffffffffffffff163373ffffffffffffffffffffffffffffffffffffffff1614806106a05750600360009054906101000a900473ffffffffffffffffffffffffffffffffffffffff1673ffffffffffffffffffffffffffffffffffffffff163373ffffffffffffffffffffffffffffffffffffffff16145b5b6106aa57600080fd5b600554426106b89190610a72565b6006819055506000600154603c6006546106d29190610a41565b6106dc91906109b8565b90506000600360009054906101000a900473ffffffffffffffffffffffffffffffffffffffff1673ffffffffffffffffffffffffffffffffffffffff168260405161072690610bef565b60006040518083038185875af1925050503d8060008114610763576040519150601f19603f3d011682016040523d82523d6000602084013e610768565b606091505b50509050806107ac576040517f08c379a00000000000000000000000000000000000000000000000000000000081526004016107a390610c50565b60405180910390fd5b6000600b546005546006546107c19190610a41565b6107cb91906109b8565b90506000600960009054906101000a900473ffffffffffffffffffffffffffffffffffffffff1673ffffffffffffffffffffffffffffffffffffffff168260405161081590610bef565b60006040518083038185875af1925050503d8060008114610852576040519150601f19603f3d011682016040523d82523d6000602084013e610857565b606091505b505090508061089b576040517f08c379a000000000000000000000000000000000000000000000000000000000815260040161089290610ce2565b60405180910390fd5b600260009054906101000a900473ffffffffffffffffffffffffffffffffffffffff1673ffffffffffffffffffffffffffffffffffffffff16ff5b60085481565b600082825260208201905092915050565b7f426f756e747920706572206d696e7574652067726561746572207468616e207660008201527f616c7565206465706f73697465642e0000000000000000000000000000000000602082015250565b6000610949602f836108dc565b9150610954826108ed565b604082019050919050565b600060208201905081810360008301526109788161093c565b9050919050565b6000819050919050565b7f4e487b7100000000000000000000000000000000000000000000000000000000600052601160045260246000fd5b60006109c38261097f565b91506109ce8361097f565b9250817fffffffffffffffffffffffffffffffffffffffffffffffffffffffffffffffff0483118215151615610a0757610a06610989565b5b828202905092915050565b7f4e487b7100000000000000000000000000000000000000000000000000000000600052601260045260246000fd5b6000610a4c8261097f565b9150610a578361097f565b925082610a6757610a66610a12565b5b828204905092915050565b6000610a7d8261097f565b9150610a888361097f565b925082821015610a9b57610a9a610989565b5b828203905092915050565b600073ffffffffffffffffffffffffffffffffffffffff82169050919050565b6000610ad182610aa6565b9050919050565b610ae181610ac6565b82525050565b6000602082019050610afc6000830184610ad8565b92915050565b610b0b8161097f565b82525050565b6000602082019050610b266000830184610b02565b92915050565b7f596f75206d75737420626520746865206a6f62206f776e657220746f2063616e60008201527f63656c2074686973206a6f620000000000000000000000000000000000000000602082015250565b6000610b88602c836108dc565b9150610b9382610b2c565b604082019050919050565b60006020820190508181036000830152610bb781610b7b565b9050919050565b600081905092915050565b50565b6000610bd9600083610bbe565b9150610be482610bc9565b600082019050919050565b6000610bfa82610bcc565b9150819050919050565b7f5061796d656e7420646964206e6f7420726561636820636f6e74726163746f72600082015250565b6000610c3a6020836108dc565b9150610c4582610c04565b602082019050919050565b60006020820190508181036000830152610c6981610c2d565b9050919050565b7f46656520646964206e6f7420726561636820636f6d70616e792061646472657360008201527f7300000000000000000000000000000000000000000000000000000000000000602082015250565b6000610ccc6021836108dc565b9150610cd782610c70565b604082019050919050565b60006020820190508181036000830152610cfb81610cbf565b905091905056fea26469706673582212202cf3ff31f8115c3093935f32d89d1d35608370f561f8797dbd8d54daa039119264736f6c634300080d0033",
  "immutableReferences": {},
  "source": "// SPDX-License-Identifier: MIT\r\npragma solidity ^0.8.6;\r\n\r\ncontract Job {\r\n\r\n    struct GPS {\r\n        uint16 longitude;\r\n        uint16 latitude;\r\n    }\r\n\r\n    GPS gps;\r\n    uint256 public bountyPerMinute;\r\n    address private owner;\r\n    //address[] private senders;\r\n    address private contractor;\r\n    uint256 timestamp;\r\n    uint256 public timeLimit;\r\n    uint256 private timeSpent;\r\n    uint256 public radius;\r\n    uint256 public totalBounty;\r\n    address public feeTo;\r\n    uint256 public feeRate;\r\n    uint256 public maxFee;\r\n\r\n\r\n    constructor(\r\n        uint16 _longitude, \r\n        uint16 _latitude, \r\n        uint256 _bountyPerMinute, \r\n        address _owner,\r\n        address _feeTo,\r\n        uint256 _feeRate\r\n        ) {\r\n        gps = GPS(_longitude, _latitude);\r\n        bountyPerMinute = _bountyPerMinute;\r\n        owner = _owner;\r\n        feeTo = _feeTo;\r\n        feeRate = _feeRate;\r\n        timestamp = 0;\r\n        timeSpent = 0;\r\n    }\r\n\r\n    //https://solidity-by-example.org/sending-ether/\r\n    // check if value is greater than bounty per minute\r\n    receive() external payable {\r\n        require(msg.value > bountyPerMinute, \"Bounty per minute greater than value deposited.\");\r\n        maxFee = msg.value * feeRate / 100;\r\n        totalBounty = msg.value - maxFee;\r\n        timeLimit = (totalBounty / bountyPerMinute) * 60;\r\n    }\r\n\r\n    // worker submits a proposal to owner\r\n    // need to check that the worker's blockchain address is valid\r\n    // need to check that the worker's geolocation is within a certain radius\r\n    function contractorAcceptJob() public{\r\n        //Sender accepting Job\r\n        require(contractor == address(0));\r\n        contractor = payable(msg.sender);\r\n    }\r\n\r\n    // owner accepts sender's proposal\r\n    // start timer\r\n    function ownerAcceptContractor() public {\r\n        //Requester accepting request\r\n        require(msg.sender == owner && contractor != address(0));\r\n        timestamp = block.timestamp;\r\n    }\r\n\r\n    function ownerRejectConctractor() public {\r\n        //time elapsed or denied\r\n        require(msg.sender == owner && timestamp == 0);\r\n        delete contractor;\r\n    }\r\n\r\n    function finishJob() public {\r\n        require(timeSpent == 0 && (msg.sender == owner || msg.sender == contractor));\r\n        timeSpent = block.timestamp - timeLimit;\r\n\r\n        //send reward to the sender\r\n        uint256 amount = (timeSpent / 60) * bountyPerMinute;\r\n        (bool paidContractor, ) = payable(contractor).call{value: amount}(\"\");\r\n        require(paidContractor, \"Payment did not reach contractor\");\r\n\r\n        //send money to company\r\n        uint actualFee = (timeSpent / timeLimit) * maxFee;\r\n        (bool collectedFee, ) = payable(feeTo).call{value: actualFee}(\"\");\r\n        require(collectedFee, \"Fee did not reach company address\");\r\n\r\n        //send remaining money back to requester\r\n        //(bool refundedOwner, ) = payable(owner).call{value: totalBounty - amount}(\"\");\r\n        //(bool refundedOwner, ) = payable(owner).call{value: address(this).balance}(\"\");\r\n        selfdestruct(payable(owner));\r\n        //require(refundedOwner, \"Refund did not reach owner\");\r\n    }\r\n\r\n    function cancelJob() public {\r\n        require(msg.sender == owner, \"You must be the job owner to cancel this job\");\r\n        selfdestruct(payable(owner));\r\n        delete contractor;\r\n        delete owner;\r\n    }\r\n\r\n    // function collectReward() public {\r\n    //     require(msg.sender == sender && timeSpent != 0);\r\n    //     uint amount = (timeSpent / 60) * bountyPerMinute;\r\n    //     payable(msg.sender).send(amount);\r\n    // }\r\n       \r\n}",
  "sourcePath": "C:\\Users\\Adrian\\OneDrive\\Blockchain\\DeVi\\contracts\\Job.sol",
  "compiler": {
    "name": "solc",
    "version": "0.8.13+commit.abaa5c0e.Emscripten.clang"
  },
  "schemaVersion": "3.4.6",
  "updatedAt": "2022-04-02T19:37:38.833Z",
  "devdoc": {
    "kind": "dev",
    "methods": {},
    "version": 1
  },
  "userdoc": {
    "kind": "user",
    "methods": {},
    "version": 1
  }
}