{
  "contractName": "Job",
  "abi": [
    {
      "inputs": [
        {
          "internalType": "uint16",
          "name": "_longitude",
          "type": "uint16"
        },
        {
          "internalType": "uint16",
          "name": "_latitude",
          "type": "uint16"
        },
        {
          "internalType": "uint256",
          "name": "_bountyPerMinute",
          "type": "uint256"
        },
        {
          "internalType": "address",
          "name": "_owner",
          "type": "address"
        }
      ],
      "stateMutability": "nonpayable",
      "type": "constructor"
    },
    {
      "inputs": [],
      "name": "bountyPerMinute",
      "outputs": [
        {
          "internalType": "uint256",
          "name": "",
          "type": "uint256"
        }
      ],
      "stateMutability": "view",
      "type": "function"
    },
    {
      "inputs": [],
      "name": "radius",
      "outputs": [
        {
          "internalType": "uint256",
          "name": "",
          "type": "uint256"
        }
      ],
      "stateMutability": "view",
      "type": "function"
    },
    {
      "inputs": [],
      "name": "timeLimit",
      "outputs": [
        {
          "internalType": "uint256",
          "name": "",
          "type": "uint256"
        }
      ],
      "stateMutability": "view",
      "type": "function"
    },
    {
      "inputs": [],
      "name": "totalBounty",
      "outputs": [
        {
          "internalType": "uint256",
          "name": "",
          "type": "uint256"
        }
      ],
      "stateMutability": "view",
      "type": "function"
    },
    {
      "stateMutability": "payable",
      "type": "receive"
    },
    {
      "inputs": [],
      "name": "contractorAcceptJob",
      "outputs": [],
      "stateMutability": "nonpayable",
      "type": "function"
    },
    {
      "inputs": [],
      "name": "ownerAcceptContractor",
      "outputs": [],
      "stateMutability": "nonpayable",
      "type": "function"
    },
    {
      "inputs": [],
      "name": "ownerRejectConctractor",
      "outputs": [],
      "stateMutability": "nonpayable",
      "type": "function"
    },
    {
      "inputs": [],
      "name": "terminateJob",
      "outputs": [],
      "stateMutability": "nonpayable",
      "type": "function"
    },
    {
      "inputs": [],
      "name": "cancelJob",
      "outputs": [],
      "stateMutability": "nonpayable",
      "type": "function"
    }
  ],
  "bytecode": "0x60806040523480156200001157600080fd5b5060405162000c8038038062000c808339818101604052810190620000379190620001e4565b60405180604001604052808561ffff1681526020018461ffff168152506000808201518160000160006101000a81548161ffff021916908361ffff16021790555060208201518160000160026101000a81548161ffff021916908361ffff1602179055509050508160018190555080600260006101000a81548173ffffffffffffffffffffffffffffffffffffffff021916908373ffffffffffffffffffffffffffffffffffffffff160217905550600060048190555060006006819055505050505062000256565b600080fd5b600061ffff82169050919050565b6200011e8162000105565b81146200012a57600080fd5b50565b6000815190506200013e8162000113565b92915050565b6000819050919050565b620001598162000144565b81146200016557600080fd5b50565b60008151905062000179816200014e565b92915050565b600073ffffffffffffffffffffffffffffffffffffffff82169050919050565b6000620001ac826200017f565b9050919050565b620001be816200019f565b8114620001ca57600080fd5b50565b600081519050620001de81620001b3565b92915050565b6000806000806080858703121562000201576200020062000100565b5b600062000211878288016200012d565b945050602062000224878288016200012d565b9350506040620002378782880162000168565b92505060606200024a87828801620001cd565b91505092959194509250565b610a1a80620002666000396000f3fe60806040526004361061008a5760003560e01c80639b98277e116100595780639b98277e14610172578063b07c747514610189578063bfefedb1146101a0578063c08d1fe5146101cb578063f19d96eb146101f6576100fd565b8063217f4353146101025780634db9e9e71461012d5780635d658aca146101445780636d2bc5251461015b576100fd565b366100fd5760015434116100d3576040517f08c379a00000000000000000000000000000000000000000000000000000000081526004016100ca9061079b565b60405180910390fd5b34600881905550603c6001546008546100ec9190610823565b6100f69190610854565b6005819055005b600080fd5b34801561010e57600080fd5b50610117610221565b60405161012491906108bd565b60405180910390f35b34801561013957600080fd5b50610142610227565b005b34801561015057600080fd5b506101596102b6565b005b34801561016757600080fd5b50610170610374565b005b34801561017e57600080fd5b50610187610412565b005b34801561019557600080fd5b5061019e61063b565b005b3480156101ac57600080fd5b506101b5610706565b6040516101c291906108bd565b60405180910390f35b3480156101d757600080fd5b506101e061070c565b6040516101ed91906108bd565b60405180910390f35b34801561020257600080fd5b5061020b610712565b60405161021891906108bd565b60405180910390f35b60075481565b600260009054906101000a900473ffffffffffffffffffffffffffffffffffffffff1673ffffffffffffffffffffffffffffffffffffffff163373ffffffffffffffffffffffffffffffffffffffff1614801561028657506000600454145b61028f57600080fd5b600360006101000a81549073ffffffffffffffffffffffffffffffffffffffff0219169055565b600260009054906101000a900473ffffffffffffffffffffffffffffffffffffffff1673ffffffffffffffffffffffffffffffffffffffff163373ffffffffffffffffffffffffffffffffffffffff161480156103625750600073ffffffffffffffffffffffffffffffffffffffff16600360009054906101000a900473ffffffffffffffffffffffffffffffffffffffff1673ffffffffffffffffffffffffffffffffffffffff1614155b61036b57600080fd5b42600481905550565b600073ffffffffffffffffffffffffffffffffffffffff16600360009054906101000a900473ffffffffffffffffffffffffffffffffffffffff1673ffffffffffffffffffffffffffffffffffffffff16146103cf57600080fd5b33600360006101000a81548173ffffffffffffffffffffffffffffffffffffffff021916908373ffffffffffffffffffffffffffffffffffffffff160217905550565b60006006541480156104c95750600260009054906101000a900473ffffffffffffffffffffffffffffffffffffffff1673ffffffffffffffffffffffffffffffffffffffff163373ffffffffffffffffffffffffffffffffffffffff1614806104c85750600360009054906101000a900473ffffffffffffffffffffffffffffffffffffffff1673ffffffffffffffffffffffffffffffffffffffff163373ffffffffffffffffffffffffffffffffffffffff16145b5b6104d257600080fd5b600554426104e091906108d8565b6006819055506000600154603c6006546104fa9190610823565b6105049190610854565b90506000600360009054906101000a900473ffffffffffffffffffffffffffffffffffffffff1673ffffffffffffffffffffffffffffffffffffffff168260405161054e9061093d565b60006040518083038185875af1925050503d806000811461058b576040519150601f19603f3d011682016040523d82523d6000602084013e610590565b606091505b505090508061059e57600080fd5b6000600260009054906101000a900473ffffffffffffffffffffffffffffffffffffffff1673ffffffffffffffffffffffffffffffffffffffff16476040516105e69061093d565b60006040518083038185875af1925050503d8060008114610623576040519150601f19603f3d011682016040523d82523d6000602084013e610628565b606091505b505090508061063657600080fd5b505050565b600260009054906101000a900473ffffffffffffffffffffffffffffffffffffffff1673ffffffffffffffffffffffffffffffffffffffff163373ffffffffffffffffffffffffffffffffffffffff16146106cb576040517f08c379a00000000000000000000000000000000000000000000000000000000081526004016106c2906109c4565b60405180910390fd5b600260009054906101000a900473ffffffffffffffffffffffffffffffffffffffff1673ffffffffffffffffffffffffffffffffffffffff16ff5b60015481565b60055481565b60085481565b600082825260208201905092915050565b7f426f756e747920706572206d696e7574652067726561746572207468616e207660008201527f616c7565206465706f73697465642e0000000000000000000000000000000000602082015250565b6000610785602f83610718565b915061079082610729565b604082019050919050565b600060208201905081810360008301526107b481610778565b9050919050565b6000819050919050565b7f4e487b7100000000000000000000000000000000000000000000000000000000600052601260045260246000fd5b7f4e487b7100000000000000000000000000000000000000000000000000000000600052601160045260246000fd5b600061082e826107bb565b9150610839836107bb565b925082610849576108486107c5565b5b828204905092915050565b600061085f826107bb565b915061086a836107bb565b9250817fffffffffffffffffffffffffffffffffffffffffffffffffffffffffffffffff04831182151516156108a3576108a26107f4565b5b828202905092915050565b6108b7816107bb565b82525050565b60006020820190506108d260008301846108ae565b92915050565b60006108e3826107bb565b91506108ee836107bb565b925082821015610901576109006107f4565b5b828203905092915050565b600081905092915050565b50565b600061092760008361090c565b915061093282610917565b600082019050919050565b60006109488261091a565b9150819050919050565b7f596f75206d75737420626520746865206a6f62206f776e657220746f2063616e60008201527f63656c2074686973206a6f620000000000000000000000000000000000000000602082015250565b60006109ae602c83610718565b91506109b982610952565b604082019050919050565b600060208201905081810360008301526109dd816109a1565b905091905056fea2646970667358221220d51f42447d059823780f6e3515eccbbd814436ac9f53f850d175e668bf5e32db64736f6c634300080d0033",
  "immutableReferences": {},
  "source": "// SPDX-License-Identifier: MIT\r\npragma solidity ^0.8.6;\r\n\r\ncontract Job {\r\n\r\n    struct GPS {\r\n        uint16 longitude;\r\n        uint16 latitude;\r\n    }\r\n\r\n    GPS gps;\r\n    uint256 public bountyPerMinute;\r\n    address private owner;\r\n    //address[] private senders;\r\n    address private contractor;\r\n    uint256 timestamp;\r\n    uint256 public timeLimit;\r\n    uint256 private timeSpent;\r\n    uint256 public radius;\r\n\r\n    uint256 public totalBounty;\r\n\r\n\r\n    constructor(\r\n        uint16 _longitude, \r\n        uint16 _latitude, \r\n        uint256 _bountyPerMinute, \r\n        address _owner\r\n        //uint8 _timelimit\r\n        ) {\r\n        gps = GPS(_longitude, _latitude);\r\n        bountyPerMinute = _bountyPerMinute;\r\n        owner = _owner;\r\n        timestamp = 0;\r\n        //timelimit = _timelimit;\r\n        timeSpent = 0;\r\n    }\r\n\r\n    //https://solidity-by-example.org/sending-ether/\r\n    // check if value is greater than bounty per minute\r\n    receive() external payable {\r\n        require(msg.value > bountyPerMinute, \"Bounty per minute greater than value deposited.\");\r\n        totalBounty = msg.value;\r\n        timeLimit = (totalBounty / bountyPerMinute) * 60;\r\n    }\r\n\r\n    // worker submits a proposal to owner\r\n    // need to check that the worker's blockchain address is valid\r\n    // need to check that the worker's geolocation is within a certain radius\r\n    function contractorAcceptJob() public{\r\n        //Sender accepting Job\r\n        require(contractor == address(0));\r\n        contractor = payable(msg.sender);\r\n    }\r\n\r\n    // owner accepts sender's proposal\r\n    // start timer\r\n    function ownerAcceptContractor() public {\r\n        //Requester accepting request\r\n        require(msg.sender == owner && contractor != address(0));\r\n        timestamp = block.timestamp;\r\n    }\r\n\r\n    function ownerRejectConctractor() public {\r\n        //time elapsed or denied\r\n        require(msg.sender == owner && timestamp == 0);\r\n        delete contractor;\r\n    }\r\n\r\n    function terminateJob() public {\r\n        require(timeSpent == 0 && (msg.sender == owner || msg.sender == contractor));\r\n        timeSpent = block.timestamp - timeLimit;\r\n\r\n        //send reward to the sender\r\n        uint256 amount = (timeSpent / 60) * bountyPerMinute;\r\n        (bool paidContractor, ) = payable(contractor).call{value: amount}(\"\");\r\n        require(paidContractor);\r\n\r\n        //send remaining money back to requester\r\n        //(bool refundedOwner, ) = payable(owner).call{value: totalBounty - amount}(\"\");\r\n        (bool refundedOwner, ) = payable(owner).call{value: address(this).balance}(\"\");\r\n        require(refundedOwner);\r\n    }\r\n\r\n    function cancelJob() public {\r\n        require(msg.sender == owner, \"You must be the job owner to cancel this job\");\r\n        selfdestruct(payable(owner));\r\n        delete contractor;\r\n        delete owner;\r\n    }\r\n\r\n    // function collectReward() public {\r\n    //     require(msg.sender == sender && timeSpent != 0);\r\n    //     uint amount = (timeSpent / 60) * bountyPerMinute;\r\n    //     payable(msg.sender).send(amount);\r\n    // }\r\n       \r\n}",
  "sourcePath": "C:\\Users\\Adrian\\OneDrive\\Blockchain\\DeVi\\contracts\\Job.sol",
  "compiler": {
    "name": "solc",
    "version": "0.8.13+commit.abaa5c0e.Emscripten.clang"
  },
  "schemaVersion": "3.4.6",
  "updatedAt": "2022-04-02T19:20:27.428Z",
  "devdoc": {
    "kind": "dev",
    "methods": {},
    "version": 1
  },
  "userdoc": {
    "kind": "user",
    "methods": {},
    "version": 1
  }
}