{
  "contractName": "JobFactory",
  "abi": [
    {
      "inputs": [
        {
          "internalType": "address",
          "name": "_feeToSetter",
          "type": "address"
        }
      ],
      "stateMutability": "nonpayable",
      "type": "constructor"
    },
    {
      "anonymous": false,
      "inputs": [
        {
          "indexed": false,
          "internalType": "address",
          "name": "job",
          "type": "address"
        }
      ],
      "name": "JobCreated",
      "type": "event"
    },
    {
      "inputs": [
        {
          "internalType": "uint256",
          "name": "",
          "type": "uint256"
        }
      ],
      "name": "allJobs",
      "outputs": [
        {
          "internalType": "address",
          "name": "",
          "type": "address"
        }
      ],
      "stateMutability": "view",
      "type": "function"
    },
    {
      "inputs": [],
      "name": "feeRate",
      "outputs": [
        {
          "internalType": "uint256",
          "name": "",
          "type": "uint256"
        }
      ],
      "stateMutability": "view",
      "type": "function"
    },
    {
      "inputs": [],
      "name": "feeTo",
      "outputs": [
        {
          "internalType": "address",
          "name": "",
          "type": "address"
        }
      ],
      "stateMutability": "view",
      "type": "function"
    },
    {
      "inputs": [],
      "name": "feeToSetter",
      "outputs": [
        {
          "internalType": "address",
          "name": "",
          "type": "address"
        }
      ],
      "stateMutability": "view",
      "type": "function"
    },
    {
      "inputs": [],
      "name": "value",
      "outputs": [
        {
          "internalType": "uint256",
          "name": "",
          "type": "uint256"
        }
      ],
      "stateMutability": "view",
      "type": "function"
    },
    {
      "inputs": [
        {
          "internalType": "uint16",
          "name": "_longitude",
          "type": "uint16"
        },
        {
          "internalType": "uint16",
          "name": "_latitude",
          "type": "uint16"
        },
        {
          "internalType": "uint256",
          "name": "_bountyPerMinute",
          "type": "uint256"
        }
      ],
      "name": "createJob",
      "outputs": [],
      "stateMutability": "payable",
      "type": "function"
    },
    {
      "inputs": [
        {
          "internalType": "address",
          "name": "_feeTo",
          "type": "address"
        }
      ],
      "name": "setFeeTo",
      "outputs": [],
      "stateMutability": "nonpayable",
      "type": "function"
    },
    {
      "inputs": [
        {
          "internalType": "address",
          "name": "_feeToSetter",
          "type": "address"
        }
      ],
      "name": "setFeeToSetter",
      "outputs": [],
      "stateMutability": "nonpayable",
      "type": "function"
    },
    {
      "inputs": [
        {
          "internalType": "uint256",
          "name": "_feeRate",
          "type": "uint256"
        }
      ],
      "name": "setFeeRate",
      "outputs": [],
      "stateMutability": "nonpayable",
      "type": "function"
    }
  ],
  "bytecode": "0x608060405234801561001057600080fd5b50604051611cd0380380611cd0833981810160405281019061003291906100dc565b80600160006101000a81548173ffffffffffffffffffffffffffffffffffffffff021916908373ffffffffffffffffffffffffffffffffffffffff16021790555050610109565b600080fd5b600073ffffffffffffffffffffffffffffffffffffffff82169050919050565b60006100a98261007e565b9050919050565b6100b98161009e565b81146100c457600080fd5b50565b6000815190506100d6816100b0565b92915050565b6000602082840312156100f2576100f1610079565b5b6000610100848285016100c7565b91505092915050565b611bb8806101186000396000f3fe608060405260043610620000925760003560e01c806345596e2e116200006157806345596e2e146200014757806390c3e9791462000175578063978bbdb914620001b9578063a2e74af614620001e9578063f46901ed14620002175762000092565b8063017e7e581462000097578063094b741514620000c75780631c22a94514620000f75780633fa4f2451462000117575b600080fd5b348015620000a457600080fd5b50620000af62000245565b604051620000be919062000784565b60405180910390f35b348015620000d457600080fd5b50620000df62000269565b604051620000ee919062000784565b60405180910390f35b6200011560048036038101906200010f919062000820565b6200028f565b005b3480156200012457600080fd5b506200012f62000455565b6040516200013e91906200088d565b60405180910390f35b3480156200015457600080fd5b506200017360048036038101906200016d9190620008aa565b6200045b565b005b3480156200018257600080fd5b50620001a160048036038101906200019b9190620008aa565b6200053e565b604051620001b0919062000784565b60405180910390f35b348015620001c657600080fd5b50620001d16200057e565b604051620001e091906200088d565b60405180910390f35b348015620001f657600080fd5b506200021560048036038101906200020f91906200090d565b62000584565b005b3480156200022457600080fd5b506200024360048036038101906200023d91906200090d565b6200065b565b005b60008054906101000a900473ffffffffffffffffffffffffffffffffffffffff1681565b600160009054906101000a900473ffffffffffffffffffffffffffffffffffffffff1681565b60008383833360008054906101000a900473ffffffffffffffffffffffffffffffffffffffff16600254604051620002c79062000731565b620002d89695949392919062000950565b604051809103906000f080158015620002f5573d6000803e3d6000fd5b5090506003819080600181540180825580915050600190039060005260206000200160009091909190916101000a81548173ffffffffffffffffffffffffffffffffffffffff021916908373ffffffffffffffffffffffffffffffffffffffff16021790555060008173ffffffffffffffffffffffffffffffffffffffff16346040516200038390620009f2565b60006040518083038185875af1925050503d8060008114620003c2576040519150601f19603f3d011682016040523d82523d6000602084013e620003c7565b606091505b50509050346004819055508062000415576040517f08c379a00000000000000000000000000000000000000000000000000000000081526004016200040c9062000a6a565b60405180910390fd5b7f534c52b73a6ac2eb028ec0bdd991eab5b610b6ef8b623db063179aa4855964498260405162000446919062000784565b60405180910390a15050505050565b60045481565b600160009054906101000a900473ffffffffffffffffffffffffffffffffffffffff1673ffffffffffffffffffffffffffffffffffffffff163373ffffffffffffffffffffffffffffffffffffffff1614620004ee576040517f08c379a0000000000000000000000000000000000000000000000000000000008152600401620004e59062000adc565b60405180910390fd5b6064811062000534576040517f08c379a00000000000000000000000000000000000000000000000000000000081526004016200052b9062000b4e565b60405180910390fd5b8060028190555050565b600381815481106200054f57600080fd5b906000526020600020016000915054906101000a900473ffffffffffffffffffffffffffffffffffffffff1681565b60025481565b600160009054906101000a900473ffffffffffffffffffffffffffffffffffffffff1673ffffffffffffffffffffffffffffffffffffffff163373ffffffffffffffffffffffffffffffffffffffff161462000617576040517f08c379a00000000000000000000000000000000000000000000000000000000081526004016200060e9062000adc565b60405180910390fd5b80600160006101000a81548173ffffffffffffffffffffffffffffffffffffffff021916908373ffffffffffffffffffffffffffffffffffffffff16021790555050565b600160009054906101000a900473ffffffffffffffffffffffffffffffffffffffff1673ffffffffffffffffffffffffffffffffffffffff163373ffffffffffffffffffffffffffffffffffffffff1614620006ee576040517f08c379a0000000000000000000000000000000000000000000000000000000008152600401620006e59062000adc565b60405180910390fd5b806000806101000a81548173ffffffffffffffffffffffffffffffffffffffff021916908373ffffffffffffffffffffffffffffffffffffffff16021790555050565b6110128062000b7183390190565b600073ffffffffffffffffffffffffffffffffffffffff82169050919050565b60006200076c826200073f565b9050919050565b6200077e816200075f565b82525050565b60006020820190506200079b600083018462000773565b92915050565b600080fd5b600061ffff82169050919050565b620007bf81620007a6565b8114620007cb57600080fd5b50565b600081359050620007df81620007b4565b92915050565b6000819050919050565b620007fa81620007e5565b81146200080657600080fd5b50565b6000813590506200081a81620007ef565b92915050565b6000806000606084860312156200083c576200083b620007a1565b5b60006200084c86828701620007ce565b93505060206200085f86828701620007ce565b9250506040620008728682870162000809565b9150509250925092565b6200088781620007e5565b82525050565b6000602082019050620008a460008301846200087c565b92915050565b600060208284031215620008c357620008c2620007a1565b5b6000620008d38482850162000809565b91505092915050565b620008e7816200075f565b8114620008f357600080fd5b50565b6000813590506200090781620008dc565b92915050565b600060208284031215620009265762000925620007a1565b5b60006200093684828501620008f6565b91505092915050565b6200094a81620007a6565b82525050565b600060c0820190506200096760008301896200093f565b6200097660208301886200093f565b6200098560408301876200087c565b62000994606083018662000773565b620009a3608083018562000773565b620009b260a08301846200087c565b979650505050505050565b600081905092915050565b50565b6000620009da600083620009bd565b9150620009e782620009c8565b600082019050919050565b6000620009ff82620009cb565b9150819050919050565b600082825260208201905092915050565b7f457468206e6f742073656e7420746f206e6577206a6f62000000000000000000600082015250565b600062000a5260178362000a09565b915062000a5f8262000a1a565b602082019050919050565b6000602082019050818103600083015262000a858162000a43565b9050919050565b7f41646472657373206973206e6f74207365747465722e00000000000000000000600082015250565b600062000ac460168362000a09565b915062000ad18262000a8c565b602082019050919050565b6000602082019050818103600083015262000af78162000ab5565b9050919050565b7f46656520726174652067726561746572207468616e20313030252e0000000000600082015250565b600062000b36601b8362000a09565b915062000b438262000afe565b602082019050919050565b6000602082019050818103600083015262000b698162000b27565b905091905056fe60806040523480156200001157600080fd5b50604051620010123803806200101283398181016040528101906200003791906200022e565b60405180604001604052808761ffff1681526020018661ffff168152506000808201518160000160006101000a81548161ffff021916908361ffff16021790555060208201518160000160026101000a81548161ffff021916908361ffff1602179055509050508360018190555082600260006101000a81548173ffffffffffffffffffffffffffffffffffffffff021916908373ffffffffffffffffffffffffffffffffffffffff16021790555081600960006101000a81548173ffffffffffffffffffffffffffffffffffffffff021916908373ffffffffffffffffffffffffffffffffffffffff16021790555080600a8190555060006004819055506000600681905550505050505050620002ca565b600080fd5b600061ffff82169050919050565b62000168816200014f565b81146200017457600080fd5b50565b60008151905062000188816200015d565b92915050565b6000819050919050565b620001a3816200018e565b8114620001af57600080fd5b50565b600081519050620001c38162000198565b92915050565b600073ffffffffffffffffffffffffffffffffffffffff82169050919050565b6000620001f682620001c9565b9050919050565b6200020881620001e9565b81146200021457600080fd5b50565b6000815190506200022881620001fd565b92915050565b60008060008060008060c087890312156200024e576200024d6200014a565b5b60006200025e89828a0162000177565b96505060206200027189828a0162000177565b95505060406200028489828a01620001b2565b94505060606200029789828a0162000217565b9350506080620002aa89828a0162000217565b92505060a0620002bd89828a01620001b2565b9150509295509295509295565b610d3880620002da6000396000f3fe6080604052600436106100ab5760003560e01c8063978bbdb911610064578063978bbdb914610216578063b07c747514610241578063bfefedb114610258578063c08d1fe514610283578063d1dfae2b146102ae578063f19d96eb146102c55761014b565b8063017e7e581461015057806301f59d161461017b578063217f4353146101a65780634db9e9e7146101d15780635d658aca146101e85780636d2bc525146101ff5761014b565b3661014b5760015434116100f4576040517f08c379a00000000000000000000000000000000000000000000000000000000081526004016100eb9061095f565b60405180910390fd5b6064600a543461010491906109b8565b61010e9190610a41565b600b81905550600b54346101229190610a72565b600881905550603c60015460085461013a9190610a41565b61014491906109b8565b6005819055005b600080fd5b34801561015c57600080fd5b506101656102f0565b6040516101729190610ae7565b60405180910390f35b34801561018757600080fd5b50610190610316565b60405161019d9190610b11565b60405180910390f35b3480156101b257600080fd5b506101bb61031c565b6040516101c89190610b11565b60405180910390f35b3480156101dd57600080fd5b506101e6610322565b005b3480156101f457600080fd5b506101fd6103b1565b005b34801561020b57600080fd5b5061021461046f565b005b34801561022257600080fd5b5061022b61050d565b6040516102389190610b11565b60405180910390f35b34801561024d57600080fd5b50610256610513565b005b34801561026457600080fd5b5061026d6105de565b60405161027a9190610b11565b60405180910390f35b34801561028f57600080fd5b506102986105e4565b6040516102a59190610b11565b60405180910390f35b3480156102ba57600080fd5b506102c36105ea565b005b3480156102d157600080fd5b506102da6108d6565b6040516102e79190610b11565b60405180910390f35b600960009054906101000a900473ffffffffffffffffffffffffffffffffffffffff1681565b600b5481565b60075481565b600260009054906101000a900473ffffffffffffffffffffffffffffffffffffffff1673ffffffffffffffffffffffffffffffffffffffff163373ffffffffffffffffffffffffffffffffffffffff1614801561038157506000600454145b61038a57600080fd5b600360006101000a81549073ffffffffffffffffffffffffffffffffffffffff0219169055565b600260009054906101000a900473ffffffffffffffffffffffffffffffffffffffff1673ffffffffffffffffffffffffffffffffffffffff163373ffffffffffffffffffffffffffffffffffffffff1614801561045d5750600073ffffffffffffffffffffffffffffffffffffffff16600360009054906101000a900473ffffffffffffffffffffffffffffffffffffffff1673ffffffffffffffffffffffffffffffffffffffff1614155b61046657600080fd5b42600481905550565b600073ffffffffffffffffffffffffffffffffffffffff16600360009054906101000a900473ffffffffffffffffffffffffffffffffffffffff1673ffffffffffffffffffffffffffffffffffffffff16146104ca57600080fd5b33600360006101000a81548173ffffffffffffffffffffffffffffffffffffffff021916908373ffffffffffffffffffffffffffffffffffffffff160217905550565b600a5481565b600260009054906101000a900473ffffffffffffffffffffffffffffffffffffffff1673ffffffffffffffffffffffffffffffffffffffff163373ffffffffffffffffffffffffffffffffffffffff16146105a3576040517f08c379a000000000000000000000000000000000000000000000000000000000815260040161059a90610b9e565b60405180910390fd5b600260009054906101000a900473ffffffffffffffffffffffffffffffffffffffff1673ffffffffffffffffffffffffffffffffffffffff16ff5b60015481565b60055481565b60006006541480156106a15750600260009054906101000a900473ffffffffffffffffffffffffffffffffffffffff1673ffffffffffffffffffffffffffffffffffffffff163373ffffffffffffffffffffffffffffffffffffffff1614806106a05750600360009054906101000a900473ffffffffffffffffffffffffffffffffffffffff1673ffffffffffffffffffffffffffffffffffffffff163373ffffffffffffffffffffffffffffffffffffffff16145b5b6106aa57600080fd5b600554426106b89190610a72565b6006819055506000600154603c6006546106d29190610a41565b6106dc91906109b8565b90506000600360009054906101000a900473ffffffffffffffffffffffffffffffffffffffff1673ffffffffffffffffffffffffffffffffffffffff168260405161072690610bef565b60006040518083038185875af1925050503d8060008114610763576040519150601f19603f3d011682016040523d82523d6000602084013e610768565b606091505b50509050806107ac576040517f08c379a00000000000000000000000000000000000000000000000000000000081526004016107a390610c50565b60405180910390fd5b6000600b546005546006546107c19190610a41565b6107cb91906109b8565b90506000600960009054906101000a900473ffffffffffffffffffffffffffffffffffffffff1673ffffffffffffffffffffffffffffffffffffffff168260405161081590610bef565b60006040518083038185875af1925050503d8060008114610852576040519150601f19603f3d011682016040523d82523d6000602084013e610857565b606091505b505090508061089b576040517f08c379a000000000000000000000000000000000000000000000000000000000815260040161089290610ce2565b60405180910390fd5b600260009054906101000a900473ffffffffffffffffffffffffffffffffffffffff1673ffffffffffffffffffffffffffffffffffffffff16ff5b60085481565b600082825260208201905092915050565b7f426f756e747920706572206d696e7574652067726561746572207468616e207660008201527f616c7565206465706f73697465642e0000000000000000000000000000000000602082015250565b6000610949602f836108dc565b9150610954826108ed565b604082019050919050565b600060208201905081810360008301526109788161093c565b9050919050565b6000819050919050565b7f4e487b7100000000000000000000000000000000000000000000000000000000600052601160045260246000fd5b60006109c38261097f565b91506109ce8361097f565b9250817fffffffffffffffffffffffffffffffffffffffffffffffffffffffffffffffff0483118215151615610a0757610a06610989565b5b828202905092915050565b7f4e487b7100000000000000000000000000000000000000000000000000000000600052601260045260246000fd5b6000610a4c8261097f565b9150610a578361097f565b925082610a6757610a66610a12565b5b828204905092915050565b6000610a7d8261097f565b9150610a888361097f565b925082821015610a9b57610a9a610989565b5b828203905092915050565b600073ffffffffffffffffffffffffffffffffffffffff82169050919050565b6000610ad182610aa6565b9050919050565b610ae181610ac6565b82525050565b6000602082019050610afc6000830184610ad8565b92915050565b610b0b8161097f565b82525050565b6000602082019050610b266000830184610b02565b92915050565b7f596f75206d75737420626520746865206a6f62206f776e657220746f2063616e60008201527f63656c2074686973206a6f620000000000000000000000000000000000000000602082015250565b6000610b88602c836108dc565b9150610b9382610b2c565b604082019050919050565b60006020820190508181036000830152610bb781610b7b565b9050919050565b600081905092915050565b50565b6000610bd9600083610bbe565b9150610be482610bc9565b600082019050919050565b6000610bfa82610bcc565b9150819050919050565b7f5061796d656e7420646964206e6f7420726561636820636f6e74726163746f72600082015250565b6000610c3a6020836108dc565b9150610c4582610c04565b602082019050919050565b60006020820190508181036000830152610c6981610c2d565b9050919050565b7f46656520646964206e6f7420726561636820636f6d70616e792061646472657360008201527f7300000000000000000000000000000000000000000000000000000000000000602082015250565b6000610ccc6021836108dc565b9150610cd782610c70565b604082019050919050565b60006020820190508181036000830152610cfb81610cbf565b905091905056fea26469706673582212202cf3ff31f8115c3093935f32d89d1d35608370f561f8797dbd8d54daa039119264736f6c634300080d0033a2646970667358221220834d868246d19bda66d5583f9dbfe3f9cc50222aa1551e1bf5b34b10337ae45264736f6c634300080d0033",
  "immutableReferences": {},
  "source": "// SPDX-License-Identifier: MIT\r\npragma solidity ^0.8.6;\r\n\r\nimport \"./Job.sol\";\r\n\r\ncontract JobFactory {\r\n\r\n    address public feeTo;\r\n    address public feeToSetter;\r\n    uint256 public feeRate;\r\n\r\n    address[] public allJobs;\r\n    uint256 public value;\r\n\r\n\r\n    event JobCreated(address job);\r\n\r\n    constructor(address _feeToSetter) {\r\n        feeToSetter = _feeToSetter;\r\n    }\r\n\r\n    function createJob(uint16 _longitude, uint16 _latitude, uint256 _bountyPerMinute) public payable {\r\n        address newJobAddr =  address(new Job(_longitude, _latitude, _bountyPerMinute, msg.sender, feeTo, feeRate));\r\n        allJobs.push(newJobAddr);\r\n        (bool sent, ) = payable(newJobAddr).call{value: msg.value}(\"\");\r\n        value = msg.value;\r\n        require(sent, \"Eth not sent to new job\");\r\n        emit JobCreated(newJobAddr);\r\n    }\r\n\r\n    function setFeeTo(address _feeTo) external {\r\n        require(msg.sender == feeToSetter, \"Address is not setter.\");\r\n        feeTo = _feeTo;\r\n    }\r\n\r\n    function setFeeToSetter(address _feeToSetter) external {\r\n        require(msg.sender == feeToSetter, \"Address is not setter.\");\r\n        feeToSetter = _feeToSetter;\r\n    }\r\n\r\n    function setFeeRate(uint256 _feeRate) external {\r\n        require(msg.sender == feeToSetter, \"Address is not setter.\");\r\n        require(_feeRate < 100, \"Fee rate greater than 100%.\");\r\n        feeRate = _feeRate;\r\n    }\r\n}\r\n",
  "sourcePath": "C:\\Users\\Adrian\\OneDrive\\Blockchain\\DeVi\\contracts\\JobFactory.sol",
  "compiler": {
    "name": "solc",
    "version": "0.8.13+commit.abaa5c0e.Emscripten.clang"
  },
  "schemaVersion": "3.4.6",
  "updatedAt": "2022-04-02T19:37:38.849Z",
  "devdoc": {
    "kind": "dev",
    "methods": {},
    "version": 1
  },
  "userdoc": {
    "kind": "user",
    "methods": {},
    "version": 1
  }
}