{
  "contractName": "JobFactory",
  "abi": [
    {
      "anonymous": false,
      "inputs": [
        {
          "indexed": false,
          "internalType": "address",
          "name": "job",
          "type": "address"
        }
      ],
      "name": "JobCreated",
      "type": "event"
    },
    {
      "inputs": [
        {
          "internalType": "uint256",
          "name": "",
          "type": "uint256"
        }
      ],
      "name": "allJobs",
      "outputs": [
        {
          "internalType": "address",
          "name": "",
          "type": "address"
        }
      ],
      "stateMutability": "view",
      "type": "function"
    },
    {
      "inputs": [],
      "name": "value",
      "outputs": [
        {
          "internalType": "uint256",
          "name": "",
          "type": "uint256"
        }
      ],
      "stateMutability": "view",
      "type": "function"
    },
    {
      "inputs": [
        {
          "internalType": "uint16",
          "name": "_longitude",
          "type": "uint16"
        },
        {
          "internalType": "uint16",
          "name": "_latitude",
          "type": "uint16"
        },
        {
          "internalType": "uint256",
          "name": "_bountyPerMinute",
          "type": "uint256"
        }
      ],
      "name": "createJob",
      "outputs": [],
      "stateMutability": "payable",
      "type": "function"
    }
  ],
  "bytecode": "0x608060405234801561001057600080fd5b506111e9806100206000396000f3fe6080604052600436106100345760003560e01c80631c22a945146100395780633fa4f2451461005557806390c3e97914610080575b600080fd5b610053600480360381019061004e9190610316565b6100bd565b005b34801561006157600080fd5b5061006a61024f565b6040516100779190610378565b60405180910390f35b34801561008c57600080fd5b506100a760048036038101906100a29190610393565b610255565b6040516100b49190610401565b60405180910390f35b6000838383336040516100cf90610294565b6100dc949392919061042b565b604051809103906000f0801580156100f8573d6000803e3d6000fd5b5090506000819080600181540180825580915050600190039060005260206000200160009091909190916101000a81548173ffffffffffffffffffffffffffffffffffffffff021916908373ffffffffffffffffffffffffffffffffffffffff16021790555060008173ffffffffffffffffffffffffffffffffffffffff1634604051610184906104a1565b60006040518083038185875af1925050503d80600081146101c1576040519150601f19603f3d011682016040523d82523d6000602084013e6101c6565b606091505b505090503460018190555080610211576040517f08c379a000000000000000000000000000000000000000000000000000000000815260040161020890610513565b60405180910390fd5b7f534c52b73a6ac2eb028ec0bdd991eab5b610b6ef8b623db063179aa485596449826040516102409190610401565b60405180910390a15050505050565b60015481565b6000818154811061026557600080fd5b906000526020600020016000915054906101000a900473ffffffffffffffffffffffffffffffffffffffff1681565b610c808061053483390190565b600080fd5b600061ffff82169050919050565b6102bd816102a6565b81146102c857600080fd5b50565b6000813590506102da816102b4565b92915050565b6000819050919050565b6102f3816102e0565b81146102fe57600080fd5b50565b600081359050610310816102ea565b92915050565b60008060006060848603121561032f5761032e6102a1565b5b600061033d868287016102cb565b935050602061034e868287016102cb565b925050604061035f86828701610301565b9150509250925092565b610372816102e0565b82525050565b600060208201905061038d6000830184610369565b92915050565b6000602082840312156103a9576103a86102a1565b5b60006103b784828501610301565b91505092915050565b600073ffffffffffffffffffffffffffffffffffffffff82169050919050565b60006103eb826103c0565b9050919050565b6103fb816103e0565b82525050565b600060208201905061041660008301846103f2565b92915050565b610425816102a6565b82525050565b6000608082019050610440600083018761041c565b61044d602083018661041c565b61045a6040830185610369565b61046760608301846103f2565b95945050505050565b600081905092915050565b50565b600061048b600083610470565b91506104968261047b565b600082019050919050565b60006104ac8261047e565b9150819050919050565b600082825260208201905092915050565b7f457468206e6f742073656e7420746f206e6577206a6f62000000000000000000600082015250565b60006104fd6017836104b6565b9150610508826104c7565b602082019050919050565b6000602082019050818103600083015261052c816104f0565b905091905056fe60806040523480156200001157600080fd5b5060405162000c8038038062000c808339818101604052810190620000379190620001e4565b60405180604001604052808561ffff1681526020018461ffff168152506000808201518160000160006101000a81548161ffff021916908361ffff16021790555060208201518160000160026101000a81548161ffff021916908361ffff1602179055509050508160018190555080600260006101000a81548173ffffffffffffffffffffffffffffffffffffffff021916908373ffffffffffffffffffffffffffffffffffffffff160217905550600060048190555060006006819055505050505062000256565b600080fd5b600061ffff82169050919050565b6200011e8162000105565b81146200012a57600080fd5b50565b6000815190506200013e8162000113565b92915050565b6000819050919050565b620001598162000144565b81146200016557600080fd5b50565b60008151905062000179816200014e565b92915050565b600073ffffffffffffffffffffffffffffffffffffffff82169050919050565b6000620001ac826200017f565b9050919050565b620001be816200019f565b8114620001ca57600080fd5b50565b600081519050620001de81620001b3565b92915050565b6000806000806080858703121562000201576200020062000100565b5b600062000211878288016200012d565b945050602062000224878288016200012d565b9350506040620002378782880162000168565b92505060606200024a87828801620001cd565b91505092959194509250565b610a1a80620002666000396000f3fe60806040526004361061008a5760003560e01c80639b98277e116100595780639b98277e14610172578063b07c747514610189578063bfefedb1146101a0578063c08d1fe5146101cb578063f19d96eb146101f6576100fd565b8063217f4353146101025780634db9e9e71461012d5780635d658aca146101445780636d2bc5251461015b576100fd565b366100fd5760015434116100d3576040517f08c379a00000000000000000000000000000000000000000000000000000000081526004016100ca9061079b565b60405180910390fd5b34600881905550603c6001546008546100ec9190610823565b6100f69190610854565b6005819055005b600080fd5b34801561010e57600080fd5b50610117610221565b60405161012491906108bd565b60405180910390f35b34801561013957600080fd5b50610142610227565b005b34801561015057600080fd5b506101596102b6565b005b34801561016757600080fd5b50610170610374565b005b34801561017e57600080fd5b50610187610412565b005b34801561019557600080fd5b5061019e61063b565b005b3480156101ac57600080fd5b506101b5610706565b6040516101c291906108bd565b60405180910390f35b3480156101d757600080fd5b506101e061070c565b6040516101ed91906108bd565b60405180910390f35b34801561020257600080fd5b5061020b610712565b60405161021891906108bd565b60405180910390f35b60075481565b600260009054906101000a900473ffffffffffffffffffffffffffffffffffffffff1673ffffffffffffffffffffffffffffffffffffffff163373ffffffffffffffffffffffffffffffffffffffff1614801561028657506000600454145b61028f57600080fd5b600360006101000a81549073ffffffffffffffffffffffffffffffffffffffff0219169055565b600260009054906101000a900473ffffffffffffffffffffffffffffffffffffffff1673ffffffffffffffffffffffffffffffffffffffff163373ffffffffffffffffffffffffffffffffffffffff161480156103625750600073ffffffffffffffffffffffffffffffffffffffff16600360009054906101000a900473ffffffffffffffffffffffffffffffffffffffff1673ffffffffffffffffffffffffffffffffffffffff1614155b61036b57600080fd5b42600481905550565b600073ffffffffffffffffffffffffffffffffffffffff16600360009054906101000a900473ffffffffffffffffffffffffffffffffffffffff1673ffffffffffffffffffffffffffffffffffffffff16146103cf57600080fd5b33600360006101000a81548173ffffffffffffffffffffffffffffffffffffffff021916908373ffffffffffffffffffffffffffffffffffffffff160217905550565b60006006541480156104c95750600260009054906101000a900473ffffffffffffffffffffffffffffffffffffffff1673ffffffffffffffffffffffffffffffffffffffff163373ffffffffffffffffffffffffffffffffffffffff1614806104c85750600360009054906101000a900473ffffffffffffffffffffffffffffffffffffffff1673ffffffffffffffffffffffffffffffffffffffff163373ffffffffffffffffffffffffffffffffffffffff16145b5b6104d257600080fd5b600554426104e091906108d8565b6006819055506000600154603c6006546104fa9190610823565b6105049190610854565b90506000600360009054906101000a900473ffffffffffffffffffffffffffffffffffffffff1673ffffffffffffffffffffffffffffffffffffffff168260405161054e9061093d565b60006040518083038185875af1925050503d806000811461058b576040519150601f19603f3d011682016040523d82523d6000602084013e610590565b606091505b505090508061059e57600080fd5b6000600260009054906101000a900473ffffffffffffffffffffffffffffffffffffffff1673ffffffffffffffffffffffffffffffffffffffff16476040516105e69061093d565b60006040518083038185875af1925050503d8060008114610623576040519150601f19603f3d011682016040523d82523d6000602084013e610628565b606091505b505090508061063657600080fd5b505050565b600260009054906101000a900473ffffffffffffffffffffffffffffffffffffffff1673ffffffffffffffffffffffffffffffffffffffff163373ffffffffffffffffffffffffffffffffffffffff16146106cb576040517f08c379a00000000000000000000000000000000000000000000000000000000081526004016106c2906109c4565b60405180910390fd5b600260009054906101000a900473ffffffffffffffffffffffffffffffffffffffff1673ffffffffffffffffffffffffffffffffffffffff16ff5b60015481565b60055481565b60085481565b600082825260208201905092915050565b7f426f756e747920706572206d696e7574652067726561746572207468616e207660008201527f616c7565206465706f73697465642e0000000000000000000000000000000000602082015250565b6000610785602f83610718565b915061079082610729565b604082019050919050565b600060208201905081810360008301526107b481610778565b9050919050565b6000819050919050565b7f4e487b7100000000000000000000000000000000000000000000000000000000600052601260045260246000fd5b7f4e487b7100000000000000000000000000000000000000000000000000000000600052601160045260246000fd5b600061082e826107bb565b9150610839836107bb565b925082610849576108486107c5565b5b828204905092915050565b600061085f826107bb565b915061086a836107bb565b9250817fffffffffffffffffffffffffffffffffffffffffffffffffffffffffffffffff04831182151516156108a3576108a26107f4565b5b828202905092915050565b6108b7816107bb565b82525050565b60006020820190506108d260008301846108ae565b92915050565b60006108e3826107bb565b91506108ee836107bb565b925082821015610901576109006107f4565b5b828203905092915050565b600081905092915050565b50565b600061092760008361090c565b915061093282610917565b600082019050919050565b60006109488261091a565b9150819050919050565b7f596f75206d75737420626520746865206a6f62206f776e657220746f2063616e60008201527f63656c2074686973206a6f620000000000000000000000000000000000000000602082015250565b60006109ae602c83610718565b91506109b982610952565b604082019050919050565b600060208201905081810360008301526109dd816109a1565b905091905056fea2646970667358221220d51f42447d059823780f6e3515eccbbd814436ac9f53f850d175e668bf5e32db64736f6c634300080d0033a264697066735822122007bad68bb70c04b775aa796e2c202af7aaf4c9f2dbc5c5918a1d74793691cef964736f6c634300080d0033",
  "immutableReferences": {},
  "source": "// SPDX-License-Identifier: MIT\r\npragma solidity ^0.8.6;\r\n\r\nimport \"./Job.sol\";\r\n\r\ncontract JobFactory {\r\n\r\n    address[] public allJobs;\r\n    uint256 public value;\r\n\r\n    event JobCreated(address job);\r\n\r\n    function createJob(uint16 _longitude, uint16 _latitude, uint256 _bountyPerMinute) public payable {\r\n        address newJobAddr =  address(new Job(_longitude, _latitude, _bountyPerMinute, msg.sender));\r\n        allJobs.push(newJobAddr);\r\n        (bool sent, ) = payable(newJobAddr).call{value: msg.value}(\"\");\r\n        value = msg.value;\r\n        require(sent, \"Eth not sent to new job\");\r\n        emit JobCreated(newJobAddr);\r\n    }\r\n\r\n}\r\n",
  "sourcePath": "C:\\Users\\Adrian\\OneDrive\\Blockchain\\DeVi\\contracts\\JobFactory.sol",
  "compiler": {
    "name": "solc",
    "version": "0.8.13+commit.abaa5c0e.Emscripten.clang"
  },
  "schemaVersion": "3.4.6",
  "updatedAt": "2022-04-02T19:20:27.452Z",
  "devdoc": {
    "kind": "dev",
    "methods": {},
    "version": 1
  },
  "userdoc": {
    "kind": "user",
    "methods": {},
    "version": 1
  }
}